:020000040800F2
:10000000008000202D110008690D0008710D000806
:10001000790D0008810D0008890D0008000000001E
:10002000000000000000000000000000910D00082A
:100030009F0D000800000000AD0D0008BB0D00087A
:100040007D1100087D1100087D1100087D11000858
:100050007D1100087D1100087D1100087D11000848
:100060007D1100087D1100087D1100087D11000838
:100070007D1100087D1100087D1100087D11000828
:100080007D110008000000007D1100087D110008AE
:100090007D1100087D1100087D1100087D11000808
:1000A0007D1100087D1100087D1100087D110008F8
:1000B0007D1100087D1100087D1100087D110008E8
:1000C0007D1100087D1100087D1100087D110008D8
:1000D0007D1100087D1100087D1100087D110008C8
:1000E0007D1100087D1100087D1100087D110008B8
:1000F0007D1100087D1100087D110008000000003E
:10010000000000007D110008000000007D110008C3
:100110007D110008000000007D1100087D1100081D
:100120007D1100087D1100087D1100087D11000877
:100130007D11000800000000000000007D11000893
:100140007D1100087D110008000000000000000083
:10015000000000000000000000000000000000009F
:100160000000000000000000000000007D110008F9
:100170007D110008000000000000000000000000E9
:10018000000000007D1100080000000000000000D9
:10019000000000000000000000000000000000005F
:1001A00000000000000000007D1100087D11000823
:1001B0007D1100087D1100087D110008000000007D
:1001C000000000007D110008000000000000000099
:0801D0007D1100087D110008FB
:1001D80010B5054C237833B9044B13B10448AFF379
:1001E80000800123237010BD0C00002000000000D7
:1001F800B049000808B5034B1BB103490348AFF3E6
:10020800008008BD0000000010000020B049000870
:1002180070B54FF0FF0C4CF4E06C1CEA11541DBF94
:100228001CEA135594EA0C0F95EA0C0F00F0DEF85F
:100238002C4481EA030621EA4C5123EA4C5350EA44
:10024800013518BF52EA033541F4801143F4801395
:1002580038D0A0FB02CE4FF00005E1FB02E506F026
:100268000042E0FB03E54FF00006E1FB03569CF07B
:10027800000F18BF4EF0010EA4F1FF04B6F5007F81
:1002880064F5407404D25FEA4E0E6D4146EB0606F3
:1002980042EAC62141EA55514FEAC52040EA5E507C
:1002A8004FEACE2EB4F1FD0C88BFBCF5E06F1ED826
:1002B800BEF1004F08BF5FEA500E50F1000041EB5D
:1002C800045170BD06F0004646EA010140EA02000A
:1002D80081EA0301B4EB5C04C2BFD4EB0C0541EA2C
:1002E800045170BD41F480114FF0000E013C00F341
:1002F800AB8014F1360FDEBF002001F0004170BD65
:10030800C4F10004203C35DA0C341BDC04F114047D
:10031800C4F1200500FA05F320FA04F001FA05F209
:1003280040EA020001F0004221F0004110EBD370D6
:1003380021FA04F642EB06015EEA430E08BF20EA02
:10034800D37070BDC4F10C04C4F1200500FA04F3A5
:1003580020FA05F001FA04F240EA020001F0004137
:1003680010EBD37041F100015EEA430E08BF20EAAA
:10037800D37070BDC4F1200500FA05F24EEA020EF2
:1003880020FA04F301FA05F243EA020321FA04F021
:1003980001F0004121FA04F220EA020000EBD370D8
:1003A8005EEA430E08BF20EAD37070BD94F0000FD8
:1003B8000FD101F00046400041EB010111F4801F0C
:1003C80008BF013CF7D041EA060195F0000F18BFBD
:1003D800704703F00046520043EB030313F4801FF9
:1003E80008BF013DF7D043EA0603704794EA0C0FB3
:1003F8000CEA135518BF95EA0C0F0CD050EA4106C9
:1004080018BF52EA4306D1D181EA030101F0004145
:100418004FF0000070BD50EA410606BF104619466D
:1004280052EA430619D094EA0C0F02D150EA013679
:1004380013D195EA0C0F05D152EA03361CBF1046BA
:1004480019460AD181EA030101F0004141F0FE4159
:1004580041F470014FF0000070BD41F0FE4141F4DD
:10046800780170BD81F0004102E000BF83F00043D5
:1004780030B54FEA41044FEA430594EA050F08BF37
:1004880090EA020F1FBF54EA000C55EA020C7FEAFB
:10049800645C7FEA655C00F0E2804FEA5454D4EB78
:1004A8005555B8BF6D420CDD2C4480EA020281EA42
:1004B800030382EA000083EA010180EA020281EA7A
:1004C8000303362D88BF30BD11F0004F4FEA0131CC
:1004D8004FF4801C4CEA113102D0404261EB4101DB
:1004E80013F0004F4FEA03334CEA133302D0524261
:1004F80063EB430394EA050F00F0A780A4F101041D
:10050800D5F1200E0DDB02FA0EFC22FA05F2801856
:1005180041F1000103FA0EF2801843FA05F359413C
:100528000EE0A5F120050EF1200E012A03FA0EFCBB
:1005380028BF4CF0020C43FA05F3C01851EBE371E5
:1005480001F0004507D54FF0000EDCF1000C7EEB02
:1005580000006EEB0101B1F5801F1BD3B1F5001F40
:100568000CD349085FEA30004FEA3C0C04F101045F
:100578004FEA445212F5800F80F09A80BCF1004F88
:1005880008BF5FEA500C50F1000041EB045141EA0A
:10059800050130BD5FEA4C0C404141EB0101013CD3
:1005A80028BFB1F5801FE9D291F0000F04BF0146C2
:1005B8000020B1FA81F308BF2033A3F10B03B3F194
:1005C80020020CDA0C3208DD02F1140CC2F10C0224
:1005D80001FA0CF021FA02F10CE002F11402D8BF82
:1005E800C2F1200C01FA02F120FA0CFCDCBF41EA4E
:1005F8000C019040E41AA2BF01EB0451294330BD1D
:100608006FEA04041F3C1CDA0C340EDC04F11404F9
:10061800C4F1200220FA04F001FA02F340EA0300D0
:1006280021FA04F345EA030130BDC4F10C04C4F116
:10063800200220FA02F001FA04F340EA03002946F6
:1006480030BD21FA04F0294630BD94F0000F83F440
:10065800801306BF81F480110134013D4EE77FEA23
:10066800645C18BF7FEA655C29D094EA050F08BF6F
:1006780090EA020F05D054EA000C04BF1946104650
:1006880030BD91EA030F1EBF0021002030BD5FEA94
:10069800545C05D14000494128BF41F0004130BDBC
:1006A80014F580043CBF01F5801130BD01F0004510
:1006B80045F0FE4141F470014FF0000030BD7FEA83
:1006C800645C1ABF194610467FEA655C1CBF0B467E
:1006D800024650EA013406BF52EA033591EA030F95
:1006E80041F4002130BD00BF90F0000F04BF00218D
:1006F800704730B54FF4806404F132044FF00005C0
:100708004FF0000150E700BF90F0000F04BF002138
:10071800704730B54FF4806404F1320410F000459E
:1007280048BF40424FF000013EE700BF42004FEA99
:10073800E2014FEA31014FEA02701FBF12F07F4316
:1007480093F07F4F81F06051704732F07F4208BFCD
:10075800704793F07F4F04BF41F40021704730B5D4
:100768004FF4607401F0004521F000411CE700BF20
:1007780050EA010208BF704730B54FF000050AE0A3
:1007880050EA010208BF704730B511F0004502D5A4
:10079800404261EB41014FF4806404F132045FEAA6
:1007A800915C3FF4D8AE4FF003025FEADC0C18BF4F
:1007B80003325FEADC0C18BF033202EBDC02C2F141
:1007C800200300FA03FC20FA02F001FA03FE40EAD3
:1007D8000E0021FA02F11444BDE600BF4FF0FF3CC1
:1007E80006E000BF4FF0010C02E000BF4FF0010C23
:1007F8004DF804CD4FEA410C7FEA6C5C4FEA430C9C
:1008080018BF7FEA6C5C1BD001B050EA410C0CBFEA
:1008180052EA430C91EA030F02BF90EA020F00204C
:10082800704710F1000F91EA030F58BF994208BFB3
:1008380090422CBFD8176FEAE37040F00100704770
:100848004FEA410C7FEA6C5C02D150EA013C07D1C7
:100858004FEA430C7FEA6C5CD6D152EA033CD3D012
:100868005DF8040B704700BF8446104662468C460C
:100878001946634600E000BF01B5FFF7B7FF00283F
:1008880048BF10F1000F01BD4DF808EDFFF7F4FF68
:100898000CBF012000205DF808FB00BF4DF808EDF3
:1008A800FFF7EAFF34BF012000205DF808FB00BF16
:1008B8004DF808EDFFF7E0FF94BF012000205DF838
:1008C80008FB00BF4DF808EDFFF7CEFF94BF0120ED
:1008D80000205DF808FB00BF4DF808EDFFF7C4FFE6
:1008E80034BF012000205DF808FB00BF4FEA410239
:1008F80012F5001215D211D56FF47873B3EB62526A
:1009080012D94FEAC12343F0004343EA505311F090
:10091800004F23FA02F018BF404270474FF0000022
:10092800704750EA013005D111F0004008BF6FF060
:10093800004070474FF00000704700BF80B588B096
:1009480000AF07F10C0300221A605A609A60DA605F
:100958001A612E4BDB6C2D4A43F02003D3642B4BDA
:10096800DB6C03F02003BB60BB68284BDB6C274AB9
:1009780043F00103D364254BDB6C03F001037B6078
:100988007B68224BDB6C214A43F00203D3641F4B84
:10099800DB6C03F002033B603B68012210214FF03F
:1009A800904000F0E1FE01220421194800F0DCFE2D
:1009B8001023FB6001233B6100237B610023BB61A3
:1009C80007F10C0319464FF0904000F04BFD02234D
:1009D800FB6000233B6101237B6107F10C0319468F
:1009E8000B4800F03FFD0423FB6001233B6101231A
:1009F8007B610023BB6107F10C031946044800F032
:100A080031FD00BF2037BD4680BD00BF0010024049
:100A18000004004880B485B000AFF860B960634650
:100A2800C7F804C0FA68002A06DDFA68C3F8582B2C
:100A38000022C3F8542B08E00022C3F8582BFA68A8
:100A4800002AB8BF5242C3F8542BBA68002A06DD00
:100A5800BA68C3F8502B0022C3F84C2B08E00022D8
:100A6800C3F8502BBA68002AB8BF5242C3F84C2BBF
:100A78000C4A1268D3F8581B51630A4A1268D3F813
:100A8800541B9163074A1268D3F8501BD163054A77
:100A98001268D3F84C3B136400BF1437BD465DF8A9
:100AA800047B70472800002080B5ADF6683D00AF94
:100AB80007F5376207F66833A3F66433C3F85C2B8F
:100AC8000023C7F8643B4FF07A5207F66833A3F661
:100AD800643303F648331A6000F04DFB00F0D6F893
:100AE800FFF72CFF00F07EF900F012FA00211D48F4
:100AF80001F0B4FC04211B4801F0B0FC082119489E
:100B080001F0ACFC0C21174801F0A8FC3B1D9C46E9
:100B180000F02AF8D7F8643B0133C7F8643BD7F8EC
:100B2800643BB3F5B47F02DB0123C7F8643B07F6E7
:100B38006833A3F66433D7F8642B53F8220007F61A
:100B48006833A3F66433D7F8642B02F5B47253F80C
:100B580022303A1D94461946FFF75CFF012000F049
:100B68007BFBD7E7280000202DE9904385B000AF34
:100B78006446C7F804C00023FB6074E0F868FFF718
:100B8800C3FD3FA3D3E90023FFF742FB02460B4610
:100B980043EC172BB0EE470AF0EE670A02F0D4FEDA
:100BA80051EC100B4FF00002374BFFF731FB0246B8
:100BB8000B4690469946234603F648331B68184669
:100BC800FFF7B4FD02460B4640464946FFF720FBB7
:100BD80002460B4610461946FFF788FE0346C4F83E
:100BE800443BF868FFF790FD25A3D3E90023FFF7FE
:100BF8000FFB02460B4643EC172BB0EE470AF0EE0C
:100C0800670A02F04DFE51EC100B4FF000021E4B2C
:100C1800FFF7FEFA02460B4690469946234603F62E
:100C280048331B681846FFF781FD02460B464046CD
:100C38004946FFF7EDFA02460B4610461946FFF7FC
:100C480055FE0346C4F8403BD4F8442BFB6844F8EF
:100C58002320D4F8402BFB6803F5B47344F8232011
:100C6800FB680133FB60FB68B3F5B47F86DD00BF2A
:100C780000BF1437BD46BDE8908300BFAFF30080C6
:100C8800399D52A246DF913F0000604080B594B084
:100C980000AF07F1180338220021184602F0D4FDEE
:100CA8003B1D00221A605A609A60DA601A614FF49C
:100CB800007000F071FD0223BB614FF480737B620A
:100CC8004023BB6200237B6307F11803184600F03A
:100CD80017FE0346002B01D000F018F80F237B60A5
:100CE8000123BB600023FB6000233B6100237B6181
:100CF8003B1D0021184601F015F90346002B01D0D1
:100D080000F004F800BF5037BD4680BD80B400AF86
:100D180072B600BF00BFFDE780B582B000AF0F4BD1
:100D28001B6E0E4A43F0010313660C4B1B6E03F057
:100D380001037B607B68094B9B6D084A43F0805335
:100D48009365064B9B6D03F080533B603B6800F056
:100D5800C7FD00BF0837BD4680BD00BF0010024078
:100D680080B400AF00BFFDE780B400AF00BFFDE76F
:100D780080B400AF00BFFDE780B400AF00BFFDE75F
:100D880080B400AF00BFFDE780B400AF00BFBD4630
:100D98005DF8047B704780B400AF00BFBD465DF8C6
:100DA800047B704780B400AF00BFBD465DF8047B8C
:100DB800704780B500AF00F031FA00BF80BD000079
:100DC80080B400AF064BD3F88830054A43F470036B
:100DD800C2F8883000BFBD465DF8047B704700BF8D
:100DE80000ED00E080B58EB000AF07F128030022C7
:100DF8001A605A609A60DA6007F11C0300221A60D0
:100E08005A609A603B4600221A605A609A60DA601B
:100E18001A615A619A613D4B4FF080421A603B4B10
:100E280000225A60394B20229A60384BFF22DA6040
:100E3800364B00221A61354B00229A61334801F083
:100E480055FA0346002B01D0FFF760FF4FF480539B
:100E5800BB6207F1280319462C4801F007FE034638
:100E6800002B01D0FFF752FF284801F096FA0346FD
:100E7800002B01D0FFF74AFF0023FB6100237B62B0
:100E880007F11C031946214802F05CFC0346002BBD
:100E980001D0FFF73BFF60233B6000237B6000230A
:100EA800BB6000233B613B4600221946174801F00E
:100EB800C9FC0346002B01D0FFF728FF3B4604225C
:100EC8001946124801F0BEFC0346002B01D0FFF77B
:100ED8001DFF3B46082219460C4801F0B3FC0346A7
:100EE800002B01D0FFF712FF3B460C22194607489A
:100EF80001F0A8FC0346002B01D0FFF707FF0348C9
:100F080000F0BCF800BF3837BD4680BD280000207F
:100F180080B588B000AF07F1140300221A605A6048
:100F28009A603B1D00221A605A609A60DA60204B72
:100F3800204A1A601E4B00225A601D4B00229A60FC
:100F48001B4B4FF6FF72DA60194B00221A61184BDF
:100F580000229A61164801F081FB0346002B01D05C
:100F6800FFF7D4FE00237B610023FB6107F1140324
:100F780019460F4802F0E6FB0346002B01D0FFF7A5
:100F8800C5FE00237B600123BB600023FB600023B8
:100F98003B613B1D00221946054801F0B6FB03469C
:100FA800002B01D0FFF7B2FE00BF2037BD4680BD41
:100FB800740000200004004080B485B000AF786061
:100FC8007B681B68B3F1804F0BD1094B9B6D084AB6
:100FD80043F001039365064B9B6D03F00103FB602F
:100FE800FB6800BF1437BD465DF8047B704700BF3F
:100FF8000010024080B58AB000AF786007F1140392
:1010080000221A605A609A60DA601A617B681B686D
:10101800174A934227D1174B9B6D164A43F0020398
:101028009365144B9B6D03F002033B613B69114BC5
:10103800DB6C104A43F00203D3640E4BDB6C03F005
:101048000203FB60FB6810237B610223BB61002362
:10105800FB6100233B6202237B6207F114031946FC
:10106800054800F0FFF900BF2837BD4680BD00BF26
:1010780000040040001002400004004880B58AB017
:1010880000AF786007F1140300221A605A609A6072
:10109800DA601A617B681B68B3F1804F39D11F4B46
:1010A800DB6C1E4A43F00103D3641C4BDB6C03F07A
:1010B80001033B613B69194BDB6C184A43F002039F
:1010C800D364164BDB6C03F00203FB60FB6803235D
:1010D8007B610223BB610023FB6100233B62012388
:1010E8007B6207F1140319464FF0904000F0BAF9FB
:1010F8004FF440637B610223BB610023FB61002343
:101108003B6201237B6207F114031946044800F08F
:10111800A9F900BF2837BD4680BD00BF00100240B6
:10112800000400480D488546FFF74AFE0C480D4963
:101138000D4A002302E0D458C4500433C4188C422A
:10114800F9D30A4A0A4C002301E013600432A24290
:10115800FBD302F081FBFFF7A7FCFEE7008000202D
:10116800000000200C000020B84B00080C000020F4
:10117800C4000020FEE780B582B000AF0023FB71F9
:10118800032000F03DF90F2000F00EF80346002B75
:1011980002D00123FB7101E0FFF7BEFDFB79184681
:1011A8000837BD4680BD000080B584B000AF7860C8
:1011B8000023FB73164B1B68002B22D0154B1A68B3
:1011C800134B1B684FF47A71B1FBF3F3B2FBF3F3E3
:1011D800184600F03AF90346002B0FD17B680F2B15
:1011E80009D8002279684FF0FF3000F014F90A4A54
:1011F8007B68136007E00123FB7304E00123FB73A2
:1012080001E00123FB73FB7B18461037BD4680BD08
:1012180008000020000000200400002080B400AF77
:10122800054B1A68054B1B681344034A136000BF3B
:10123800BD465DF8047B7047C00000200800002010
:1012480080B400AF034B1B681846BD465DF8047BAD
:10125800704700BFC000002080B584B000AF786040
:10126800FFF7EEFFB8607B68FB60FB68B3F1FF3FF8
:1012780004D0094B1B68FA681344FB6000BFFFF7F2
:10128800DFFF0246BB68D31AFA689A42F7D800BF54
:1012980000BF1037BD4680BD0800002080B485B06F
:1012A80000AF78607B6803F00703FB600C4BDB68DA
:1012B800BB60BA684FF6FF031340BB60FB681A02B5
:1012C800BB68134343F0BF6343F40033BB60044A75
:1012D800BB68D36000BF1437BD465DF8047B704718
:1012E80000ED00E080B400AF044BDB681B0A03F09C
:1012F80007031846BD465DF8047B704700ED00E023
:1013080080B483B000AF03463960FB7197F90730AA
:10131800002B0ADB3B68DAB20C4997F90730120157
:10132800D2B20B4483F800230AE03B68DAB20849DA
:10133800FB7903F00F03043B1201D2B20B441A7677
:1013480000BF0C37BD465DF8047B704700E100E044
:1013580000ED00E080B489B000AFF860B9607A6051
:10136800FB6803F00703FB61FB69C3F10703042B68
:1013780028BF0423BB61FB690433062B02D9FB6930
:10138800033B00E000237B614FF0FF32BB6902FAA8
:1013980003F3DA43BB681A407B699A404FF0FF3188
:1013A8007B6901FA03F3D9437B680B401343184662
:1013B8002437BD465DF8047B7047000080B582B0D5
:1013C80000AF78607B68013BB3F1807F01D30123D4
:1013D8000FE00A4A7B68013B53600F214FF0FF3052
:1013E800FFF78EFF054B00229A60044B07221A6014
:1013F800002318460837BD4680BD00BF10E000E056
:1014080080B582B000AF78607868FFF747FF00BF0B
:101418000837BD4680BD80B586B000AF0346B960C9
:101428007A60FB73FFF75EFF78617A68B96878695C
:10143800FFF790FF024697F90F3011461846FFF75D
:101448005FFF00BF1837BD4680BD80B582B000AFD2
:1014580078607868FFF7B2FF034618460837BD463C
:1014680080BD000080B487B000AF78603960002389
:101478007B615AE13B681A6801217B6901FA03F331
:101488001340FB60FB68002B00F04C813B685B68F5
:1014980003F00303012B05D03B685B6803F00303EB
:1014A800022B30D17B689B683B617B695B00032220
:1014B80002FA03F3DB433A6913403B613B68DA689D
:1014C8007B695B0002FA03F33A6913433B617B686B
:1014D8003A699A607B685B683B6101227B6902FA22
:1014E80003F3DB433A6913403B613B685B681B09C4
:1014F80003F001027B6902FA03F33A6913433B6183
:101508007B683A695A603B685B6803F00303032B06
:1015180017D07B68DB683B617B695B00032202FABA
:1015280003F3DB433A6913403B613B689A687B6984
:101538005B0002FA03F33A6913433B617B683A693B
:10154800DA603B685B6803F00303022B23D17B69F5
:10155800DA087B68083253F822303B617B6903F074
:1015680007039B000F2202FA03F3DB433A69134097
:101578003B613B681A697B6903F007039B0002FA29
:1015880003F33A6913433B617B69DA087B680832E5
:10159800396943F822107B681B683B617B695B00F3
:1015A800032202FA03F3DB433A6913403B613B68C9
:1015B8005B6803F003027B695B0002FA03F33A6994
:1015C80013433B617B683A691A603B685B6803F4C4
:1015D8004033002B00F0A6805B4B1B6E5A4A43F049
:1015E80001031366584B1B6E03F00103BB60BB6815
:1015F800564A7B699B08023352F823303B617B696A
:1016080003F003039B000F2202FA03F3DB433A695A
:1016180013403B617B68B3F1904F1FD07B684C4A05
:10162800934219D07B684B4A934213D07B684A4A4D
:1016380093420DD07B68494A934207D07B68484A59
:10164800934201D105230AE0062308E0042306E0BB
:10165800032304E0022302E0012300E000237A6967
:1016680002F00302920093403A6913433B61374901
:101678007B699B0802333A6941F82320394B9B6800
:101688003B61FB68DB433A6913403B613B685B683D
:1016980003F48013002B03D03A69FB6813433B61C2
:1016A800304A3B6993602F4BDB683B61FB68DB4347
:1016B8003A6913403B613B685B6803F40013002BF5
:1016C80003D03A69FB6813433B61264A3B69D36000
:1016D800244B5B683B61FB68DB433A6913403B6121
:1016E8003B685B6803F40033002B03D03A69FB685E
:1016F80013433B611B4A3B6953601A4B1B683B61B0
:10170800FB68DB433A6913403B613B685B6803F461
:101718008033002B03D03A69FB6813433B61114ABD
:101728003B6913607B6901337B613B681A687B699D
:1017380022FA03F3002B7FF49DAE00BF00BF1C37D5
:10174800BD465DF8047B7047001002400000014070
:101758000004004800080048000C00480010004839
:10176800001400480004014080B483B000AF7860E2
:101778000B467B8013467B707B78002B03D07A88DE
:101788007B689A6102E07A887B689A6200BF0C37AE
:10179800BD465DF8047B704780B485B000AF7860C3
:1017A8007B68002B41D14B4B1B6803F4C063B3F536
:1017B800806F31D1474BD3F88030464A23F4807389
:1017C800C2F88030434B1B6823F4C063414A43F49A
:1017D80000731360404B1B68322202FB03F33F4A3D
:1017E800A2FB03239B0C0133FB6002E0FB68013B77
:1017F800FB60384B5B6903F48063B3F5806F02D1FB
:10180800FB68002BF2D1334B5B6903F48063B3F5BB
:10181800806F58D1032357E02E4BD3F880302D4AE0
:1018280023F48073C2F880304DE07B68B3F5007F05
:1018380041D1284B1B6803F4C063B3F5806F31D1E5
:10184800244BD3F88030234A43F48073C2F88030A5
:10185800204B1B6823F4C0631E4A43F400731360D3
:101868001D4B1B68322202FB03F31C4AA2FB032315
:101878009B0C0133FB6002E0FB68013BFB60154BEE
:101888005B6903F48063B3F5806F02D1FB68002BBA
:10189800F2D1104B5B6903F48063B3F5806F12D10A
:1018A800032311E00B4BD3F880300A4A43F48073CA
:1018B800C2F8803007E0074B1B6823F4C063054A71
:1018C80043F480631360002318461437BD465DF85F
:1018D800047B7047007000400000002083DE1B433B
:1018E80080B400AF054B9B68044A43F4804393607F
:1018F80000BFBD465DF8047B704700BF0070004024
:1019080080B588B000AF78607B68002B01D10123D7
:10191800FEE27B681B6803F00103002B75D0974B30
:101928009B6803F00C03BB61944BDB6803F0030373
:101938007B61BB690C2B02D17B69032B02D0BB698D
:10194800082B0BD18D4B1B6803F40033002B5BD0A5
:101958007B685B68002B57D10123D9E27B685B6801
:10196800B3F5803F06D1854B1B68844A43F4803326
:1019780013601DE07B685B68B3F5A02F0CD17F4B2B
:101988001B687E4A43F4802313607C4B1B687B4AA8
:1019980043F4803313600BE0784B1B68774A23F4D9
:1019A80080331360754B1B68744A23F480231360DB
:1019B8007B685B68002B13D0FFF742FC386108E0B6
:1019C800FFF73EFC02463B69D31A642B01D9032377
:1019D8009EE26A4B1B6803F40033002BF0D014E03E
:1019E800FFF72EFC386108E0FFF72AFC02463B6946
:1019F800D31A642B01D903238AE2604B1B6803F4D2
:101A08000033002BF0D100E000BF7B681B6803F0B7
:101A18000203002B75D0594B9B6803F00C03BB6184
:101A2800564BDB6803F003037B61BB690C2B02D1C7
:101A38007B69022B02D0BB69042B1FD14F4B1B685B
:101A480003F48063002B05D07B68DB68002B01D191
:101A580001235DE2494B5B6823F0FE427B681B690A
:101A68001B06464913434B60454B1B681846FFF756
:101A78009BFB0346002B43D0012349E27B68DB68CC
:101A8800002B23D03D4B1B683C4A43F48073136002
:101A9800FFF7D6FB386108E0FFF7D2FB02463B6947
:101AA800D31A022B01D9032332E2344B1B6803F407
:101AB8008063002BF0D0314B5B6823F0FE427B68DB
:101AC8001B691B062D4913434B601AE02B4B1B68FF
:101AD8002A4A23F480731360FFF7B2FB386108E0E9
:101AE800FFF7AEFB02463B69D31A022B01D9032349
:101AF8000EE2224B1B6803F48063002BF0D100E058
:101B080000BF7B681B6803F00803002B41D07B688B
:101B18005B69002B1CD0194BD3F89430174A43F05B
:101B28000103C2F89430FFF78BFB386108E0FFF738
:101B380087FB02463B69D31A022B01D90323E7E14D
:101B48000E4BD3F8943003F00203002BEFD020E0C3
:101B58000A4BD3F89430094A23F00103C2F89430B1
:101B6800FFF76EFB38610DE0FFF76AFB02463B6941
:101B7800D31A022B06D90323CAE100BF0010024082
:101B8800040000208C4BD3F8943003F00203002BA0
:101B9800EAD17B681B6803F00403002B00F0A680E1
:101BA8000023FB77844B9B6D03F08053002B01D1FE
:101BB800012300E00023002B0DD07F4B9B6D7E4A54
:101BC80043F0805393657C4B9B6D03F08053FB601F
:101BD800FB680123FB77794B1B6803F48073002BA8
:101BE80018D1764B1B68754A43F480731360FFF76E
:101BF80027FB386108E0FFF723FB02463B69D31A4D
:101C0800022B01D9032383E16C4B1B6803F4807317
:101C1800002BF0D07B689B68012B08D1664BD3F86A
:101C28009030654A43F00103C2F8903024E07B68A5
:101C38009B68052B10D1604BD3F890305E4A43F077
:101C48000403C2F890305C4BD3F890305A4A43F002
:101C58000103C2F890300FE0574BD3F89030564A42
:101C680023F00103C2F89030534BD3F89030524A16
:101C780023F00403C2F890307B689B68002B16D0D1
:101C8800FFF7DEFA38610AE0FFF7DAFA02463B6945
:101C9800D31A41F28832934201D9032338E1464BE3
:101CA800D3F8903003F00203002BEDD015E0FFF7D6
:101CB800C7FA38610AE0FFF7C3FA02463B69D31A4C
:101CC80041F28832934201D9032321E13A4BD3F8F8
:101CD800903003F00203002BEDD1FB7F012B05D1DF
:101CE800354B9B6D344A23F0805393657B681B68A2
:101CF80003F02003002B3CD07B689B69002B1CD091
:101D08002D4BD3F898302C4A43F00103C2F8983091
:101D1800FFF796FA386108E0FFF792FA02463B6946
:101D2800D31A022B01D90323F2E0234BD3F89830BE
:101D380003F00203002BEFD01BE01F4BD3F89830C1
:101D48001D4A23F00103C2F89830FFF779FA386189
:101D580008E0FFF775FA02463B69D31A022B01D94E
:101D68000323D5E0144BD3F8983003F00203002B7B
:101D7800EFD17B68DB69002B00F0C9800E4B9B68B4
:101D880003F00C030C2B00F083807B68DB69022BCB
:101D98005ED1094B1B68084A23F080731360FFF774
:101DA8004FFA38610CE0FFF74BFA02463B69D31A49
:101DB800022B05D90323ABE000100240007000405D
:101DC800554B1B6803F00073002BECD1524BDA68BB
:101DD800524B13407A68116A7A68526A013A1201C2
:101DE80011437A68926A120211437A68126B520898
:101DF800013A520511437A68526B5208013A520669
:101E080011437A68D26AD2060A4343491343CB6026
:101E1800414B1B68404A43F0807313603E4BDB68BC
:101E28003D4A43F08073D360FFF70AFA386108E04F
:101E3800FFF706FA02463B69D31A022B01D903239E
:101E480066E0354B1B6803F00073002BF0D05EE0B2
:101E5800314B1B68304A23F080731360FFF7F0F9A9
:101E6800386108E0FFF7ECF902463B69D31A022B08
:101E780001D903234CE0284B1B6803F00073002BA7
:101E8800F0D1254BDA682449254B1340CB603EE05E
:101E98007B68DB69012B01D1012339E01E4BDB682C
:101EA8007B617B6903F003027B681B6A9A422CD131
:101EB8007B6903F0F0027B685B6A013B1B019A4275
:101EC80023D17B6903F4FE427B689B6A1B029A421A
:101ED8001BD17B6903F078427B68DB6ADB069A4298
:101EE80013D17B6903F4C0027B681B6B5B08013B61
:101EF8005B059A4209D17B6903F0C0627B685B6B22
:101F08005B08013B5B069A4201D0012300E00023F5
:101F180018462037BD4680BD001002400C809F0146
:101F2800FCFFEEFE80B586B000AF78603960002314
:101F38007B617B68002B01D101231EE1914B1B685B
:101F480003F00F033A689A4210D98E4B1B6823F0AE
:101F58000F028C493B6813430B608A4B1B6803F0E4
:101F68000F033A689A4201D0012306E17B681B6897
:101F780003F00103002B73D07B685B68032B29D126
:101F8800814B1B6803F00073002B01D10123F4E09F
:101F980000F066F938613B697C4A93423FD97A4B35
:101FA8009B6803F0F003002B09D07B681B6803F0E3
:101FB8000203002B33D07B689B68002B2FD1724B18
:101FC8009B6823F0F003704A43F0800393608023FA
:101FD8007B6124E07B685B68022B07D16A4B1B6836
:101FE80003F40033002B09D10123C6E0664B1B68BC
:101FF80003F48063002B01D10123BEE000F0CEF88A
:1020080038613B69614A934209D95F4B9B6823F069
:10201800F0035D4A43F08003936080237B615A4B51
:102028009B6823F003027B685B68574913438B6006
:10203800FFF706F9F8600AE0FFF702F90246FB68C5
:10204800D31A41F28832934201D9032395E04E4BCB
:102058009B6803F00C027B685B689B009A42EBD19B
:102068007B681B6803F00203002B23D07B681B6886
:1020780003F00403002B05D0434B9B68424A43F40A
:10208800E06393607B681B6803F00803002B07D0AC
:102098003D4B9B6823F47C533B4A43F4E0639360D5
:1020A800394B9B6823F0F0027B689B6836491343E1
:1020B8008B6008E07B69802B05D1334B9B68324AE3
:1020C80023F0F00393602F4B1B6803F00F033A686B
:1020D8009A421DD22B4B1B6823F00F0229493B68FB
:1020E80013430B60FFF7ACF8F8600AE0FFF7A8F8B5
:1020F8000246FB68D31A41F28832934201D903237E
:102108003BE0204B1B6803F00F033A689A42EDD17D
:102118007B681B6803F00403002B08D01A4B9B68EC
:1021280023F4E0627B68DB68174913438B607B68A4
:102138001B6803F00803002B09D0134B9B6823F49A
:1021480060527B681B69DB000F4913438B6000F00A
:1021580025F802460C4B9B681B0903F00F030C493A
:10216800CB5C03F01F0322FA03F30A4A13600A4BFD
:102178001B681846FFF718F8034618461837BD4677
:1021880080BD00BF002002400010024000B4C4041B
:10219800C8490008000000200400002080B487B06F
:1021A80000AF2C4B9B6803F00C03042B02D12A4B85
:1021B8003B6147E0274B9B6803F00C03082B02D1D7
:1021C800264B3B613EE0234B9B6803F00C030C2B32
:1021D80036D1204BDB6803F00303FB601D4BDB6843
:1021E8001B0903F00F030133BB60FB68032B0CD101
:1021F8001A4ABB68B2FBF3F3164AD268120A02F015
:102208007F0202FB03F37B610CE0134ABB68B2FB5D
:10221800F3F3104AD268120A02F07F0202FB03F3BA
:102228007B6100BF0B4BDB685B0E03F003030133DC
:102238005B007B607A697B68B2FBF3F33B6101E08A
:1022480000233B613B6918461C37BD465DF8047B9B
:10225800704700BF001002400024F400001BB700C4
:1022680080B487B000AF1E4BDB6803F003033B610B
:102278001B4BDB681B0903F00F030133FB603B6951
:10228800032B0CD1174AFB68B2FBF3F3144AD2684C
:10229800120A02F07F0202FB03F37B610CE0124A90
:1022A800FB68B2FBF3F30E4AD268120A02F07F020F
:1022B80002FB03F37B6100BF094BDB685B0E03F095
:1022C800030301335B00BB607A69BB68B2FBF3F3BD
:1022D8007B607B6818461C37BD465DF8047B7047F9
:1022E80000100240001BB7000024F40080B582B043
:1022F80000AF78607B68002B01D1012349E07B683F
:1023080093F83D30DBB2002B06D17B68002283F8BE
:102318003C207868FEF750FE7B68022283F83D2057
:102328007B681A687B6804331946104600F098FCED
:102338007B68012283F848207B68012283F83E20CD
:102348007B68012283F83F207B68012283F84020C4
:102358007B68012283F841207B68012283F84220B0
:102368007B68012283F843207B68012283F844209C
:102378007B68012283F845207B68012283F8462088
:102388007B68012283F847207B68012283F83D207F
:10239800002318460837BD4680BD80B582B000AF1F
:1023A80078607B68002B01D1012349E07B6893F8B2
:1023B8003D30DBB2002B06D17B68002283F83C203D
:1023C800786800F041F87B68022283F83D207B683A
:1023D8001A687B6804331946104600F041FC7B6894
:1023E800012283F848207B68012283F83E207B681D
:1023F800012283F83F207B68012283F840207B6814
:10240800012283F841207B68012283F842207B68FF
:10241800012283F843207B68012283F844207B68EB
:10242800012283F845207B68012283F846207B68D7
:10243800012283F847207B68012283F83D2000238E
:1024480018460837BD4680BD80B483B000AF7860B9
:1024580000BF0C37BD465DF8047B704780B584B07B
:1024680000AF786039603B68002B09D17B6893F82E
:102478003E30DBB2012B14BF01230023DBB23CE06A
:102488003B68042B09D17B6893F83F30DBB2012B02
:1024980014BF01230023DBB22FE03B68082B09D1CE
:1024A8007B6893F84030DBB2012B14BF0123002373
:1024B800DBB222E03B680C2B09D17B6893F84130F2
:1024C800DBB2012B14BF01230023DBB215E03B680C
:1024D800102B09D17B6893F84230DBB2012B14BF73
:1024E80001230023DBB208E07B6893F84330DBB2BA
:1024F800012B14BF01230023DBB2002B01D00123E1
:1025080097E03B68002B04D17B68022283F83E20C9
:1025180023E03B68042B04D17B68022283F83F2028
:102528001BE03B68082B04D17B68022283F840201B
:1025380013E03B680C2B04D17B68022283F841200E
:102548000BE03B68102B04D17B68022283F8422001
:1025580003E07B68022283F843207B681B68012222
:102568003968184601F0C8F87B681B68334A9342FB
:1025780013D07B681B68324A93420ED07B681B6875
:10258800304A934209D07B681B682F4A934204D093
:102598007B681B682D4A934201D1012300E0002388
:1025A800002B07D07B681B685A6C7B681B6842F459
:1025B80000425A647B681B68204A934218D07B68A3
:1025C8001B68B3F1804F13D07B681B68204A934285
:1025D8000ED07B681B681F4A934209D07B681B6832
:1025E800174A934204D07B681B68164A934215D158
:1025F8007B681B689A68184B1340FB60FB68062BC6
:1026080015D0FB68B3F5803F11D07B681B681A684A
:102618007B681B6842F001021A6008E07B681B684F
:102628001A687B681B6842F001021A6000E000BF6C
:10263800002318461037BD4680BD00BF002C01405E
:10264800003401400040014000440140004801407E
:1026580000040040000800400700010080B582B077
:1026680000AF78607B68002B01D1012349E07B68CB
:1026780093F83D30DBB2002B06D17B68002283F84B
:102688003C207868FEF7B6FC7B68022283F83D2080
:102698007B681A687B6804331946104600F0E0FA34
:1026A8007B68012283F848207B68012283F83E205A
:1026B8007B68012283F83F207B68012283F8402051
:1026C8007B68012283F841207B68012283F842203D
:1026D8007B68012283F843207B68012283F8442029
:1026E8007B68012283F845207B68012283F8462015
:1026F8007B68012283F847207B68012283F83D200C
:10270800002318460837BD4680BD80B586B000AFA7
:10271800F860B9607A600023FB75FB6893F83C3079
:10272800012B01D1022388E0FB68012283F83C20B9
:102738007B68002B1BD1FB681868BB681968BB68ED
:102748005A68BB68DB6800F01DFEFB681B689A6965
:10275800FB681B6822F00C029A61FB681B68996988
:10276800BB689A68FB681B680A439A6160E07B68EB
:10277800042B1CD1FB681868BB681968BB685A68C9
:10278800BB68DB6800F095FEFB681B689A69FB680C
:102798001B6822F440629A61FB681B689969BB68F0
:1027A8009B681A02FB681B680A439A6140E07B68D1
:1027B800082B1BD1FB681868BB681968BB685A6886
:1027C800BB68DB6800F0E2FEFB681B68DA69FB683F
:1027D8001B6822F00C02DA61FB681B68D969BB68C8
:1027E8009A68FB681B680A43DA6121E07B680C2B56
:1027F8001CD1FB681868BB681968BB685A68BB6855
:10280800DB6800F0FFFEFB681B68DA69FB681B6881
:1028180022F44062DA61FB681B68D969BB689B686F
:102828001A02FB681B680A43DA6101E00123FB75A1
:10283800FB68002283F83C20FB7D18461837BD460C
:1028480080BD000080B586B000AFF860B9607A60DE
:102858000023FB75FB6893F83C30012B01D1022360
:10286800FFE0FB68012283F83C207B68142B00F210
:10287800F08001A252F823F0D52800085B2A00084E
:102888005B2A00085B2A0008152900085B2A000853
:102898005B2A00085B2A0008572900085B2A000801
:1028A8005B2A00085B2A0008972900085B2A0008B1
:1028B8005B2A00085B2A0008D92900085B2A00085F
:1028C8005B2A00085B2A0008192A0008FB681B68B5
:1028D800B968184600F060FAFB681B689A69FB68DB
:1028E8001B6842F008029A61FB681B689A69FB68DA
:1028F8001B6822F004029A61FB681B689969BB682F
:102908001A69FB681B680A439A61A5E0FB681B68A3
:10291800B968184600F0D0FAFB681B689A69FB682A
:102928001B6842F400629A61FB681B689A69FB683D
:102938001B6822F480629A61FB681B689969BB680E
:102948001B691A02FB681B680A439A6184E0FB68EA
:102958001B68B968184600F039FBFB681B68DA6920
:10296800FB681B6842F00802DA61FB681B68DA69D9
:10297800FB681B6822F00402DA61FB681B68D969EE
:10298800BB681A69FB681B680A43DA6164E0FB6884
:102998001B68B968184600F0A1FBFB681B68DA6978
:1029A800FB681B6842F40062DA61FB681B68DA693D
:1029B800FB681B6822F48062DA61FB681B68D969CE
:1029C800BB681B691A02FB681B680A43DA6143E0AB
:1029D800FB681B68B968184600F00AFCFB681B68AE
:1029E8001A6DFB681B6842F008021A65FB681B68D1
:1029F8001A6DFB681B6822F004021A65FB681B68E5
:102A0800196DBB681A69FB681B680A431A6523E0DD
:102A1800FB681B68B968184600F04EFCFB681B6829
:102A28001A6DFB681B6842F400621A65FB681B6834
:102A38001A6DFB681B6822F480621A65FB681B68C4
:102A4800196DBB681B691A02FB681B680A431A6583
:102A580002E00123FB7500BFFB68002283F83C20DD
:102A6800FB7D18461837BD4680BD00BF80B584B0D1
:102A780000AF786039600023FB737B6893F83C30C3
:102A8800012B01D10223DEE07B68012283F83C2080
:102A98007B68022283F83D207B681B689B68BB60CB
:102AA800BB6823F4441323F07703BB60BB6823F4AB
:102AB8007F43BB607B681B68BA689A603B681B6889
:102AC800634A934200F0A980614A934200F2AE80C3
:102AD800604A934200F0A1805E4A934200F2A680C9
:102AE8005D4A934200F099805B4A934200F29E80CF
:102AF8005A4A934200F09180584A934200F29680D5
:102B0800B3F1101F00F08980B3F1101F00F28E801E
:102B1800B3F5005F3ED0B3F5005F00F28780B3F5F0
:102B2800805F00F08680B3F5805F7FD8702B1AD065
:102B3800702B7BD8602B50D0602B77D8502B3CD093
:102B4800502B73D8402B58D0402B6FD8302B64D0E3
:102B5800302B6BD8202B60D0202B67D8002B5CD073
:102B6800102B5AD062E07B6818683B6899683B680C
:102B78005A683B68DB6800F09FFD7B681B689B68B0
:102B8800BB60BB6843F07703BB607B681B68BA68AF
:102B98009A604FE07B6818683B6899683B685A6898
:102BA8003B68DB6800F088FD7B681B689A687B6877
:102BB8001B6842F480429A603CE07B6818683B6876
:102BC80059683B68DB681A4600F044FC7B681B6860
:102BD8005021184600F053FD2CE07B6818683B68CC
:102BE80059683B68DB681A4600F0A0FC7B681B68E4
:102BF8006021184600F043FD1CE07B6818683B68BC
:102C080059683B68DB681A4600F024FC7B681B683F
:102C18004021184600F033FD0CE07B681A683B68D9
:102C28001B681946104600F02AFD03E00123FB73D8
:102C380000E000BF7B68012283F83D207B6800220A
:102C480083F83C20FB7B18461037BD4680BD00BF8B
:102C5800700010004000100030001000200010002C
:102C680080B485B000AF786039607B681B68FB6012
:102C78007B68424A93420FD07B68B3F1804F0BD0F8
:102C88007B683F4A934207D07B683E4A934203D011
:102C98007B683D4A934208D1FB6823F07003FB60D0
:102CA8003B685B68FA681343FB607B68334A93426E
:102CB8001BD07B68B3F1804F17D07B68304A9342B2
:102CC80013D07B682F4A93420FD07B682E4A9342D9
:102CD8000BD07B682D4A934207D07B682C4A9342DD
:102CE80003D07B682B4A934208D1FB6823F44073D6
:102CF800FB603B68DB68FA681343FB60FB6823F002
:102D080080023B685B691343FB607B68FA681A6062
:102D18003B689A687B68DA623B681A687B689A62E3
:102D28007B68164A93420FD07B68174A93420BD0B0
:102D38007B68164A934207D07B68154A934203D0B2
:102D48007B68144A934203D13B681A697B681A630B
:102D58007B6801225A617B681B6903F00103012B20
:102D680005D17B681B6923F001027B681A6100BFEB
:102D78001437BD465DF8047B704700BF002C014046
:102D880000040040000800400034014000400140B9
:102D9800004401400048014080B487B000AF78602B
:102DA80039607B681B6A7B617B681B6A23F00102C0
:102DB8007B681A627B685B683B617B689B69FB6028
:102DC800FB6823F4803323F07003FB60FB6823F077
:102DD8000303FB603B681B68FA681343FB607B696D
:102DE80023F002037B613B689B687A6913437B612C
:102DF8007B682C4A93420FD07B682B4A93420BD0B6
:102E08007B682A4A934207D07B68294A934203D0B9
:102E18007B68284A93420CD17B6923F008037B61C5
:102E28003B68DB687A6913437B617B6923F00403A1
:102E38007B617B681B4A93420FD07B681A4A934296
:102E48000BD07B68194A934207D07B68184A934293
:102E580003D07B68174A934211D13B6923F48073EE
:102E68003B613B6923F400733B613B685B693A69EA
:102E780013433B613B689B693A6913433B617B6839
:102E88003A695A607B68FA689A613B685A687B6855
:102E98005A637B687A691A6200BF1C37BD465DF8C1
:102EA800047B7047002C0140003401400040014081
:102EB800004401400048014080B487B000AF78600A
:102EC80039607B681B6A7B617B681B6A23F0100290
:102ED8007B681A627B685B683B617B689B69FB6007
:102EE800FB6823F0807323F4E043FB60FB6823F462
:102EF8004073FB603B681B681B02FA681343FB6066
:102F08007B6923F020037B613B689B681B017A691E
:102F180013437B617B68284A934203D07B68274A26
:102F280093420DD17B6923F080037B613B68DB68AA
:102F38001B017A6913437B617B6923F040037B6142
:102F48007B681D4A93420FD07B681C4A93420BD082
:102F58007B681B4A934207D07B681A4A934203D086
:102F68007B68194A934213D13B6923F480633B6120
:102F78003B6923F400633B613B685B699B003A69EA
:102F880013433B613B689B699B003A6913433B6170
:102F98007B683A695A607B68FA689A613B685A6844
:102FA8007B689A637B687A691A6200BF1C37BD46E2
:102FB8005DF8047B704700BF002C014000340140DD
:102FC80000400140004401400048014080B487B0FF
:102FD80000AF786039607B681B6A7B617B681B6A1D
:102FE80023F480727B681A627B685B683B617B684C
:102FF800DB69FB60FB6823F4803323F07003FB601C
:10300800FB6823F00303FB603B681B68FA68134303
:10301800FB607B6923F400737B613B689B681B0240
:103028007A6913437B617B68274A934203D07B68A4
:10303800264A93420DD17B6923F400637B613B6888
:10304800DB681B027A6913437B617B6923F4806325
:103058007B617B681C4A93420FD07B681B4A934272
:103068000BD07B681A4A934207D07B68194A93426F
:1030780003D07B68184A934213D13B6923F48053E9
:103088003B613B6923F400533B613B685B691B016F
:103098003A6913433B613B689B691B013A691343D7
:1030A8003B617B683A695A607B68FA68DA613B6819
:1030B8005A687B68DA637B687A691A6200BF1C37D2
:1030C800BD465DF8047B7047002C01400034014088
:1030D80000400140004401400048014080B487B0EE
:1030E80000AF786039607B681B6A7B617B681B6A0C
:1030F80023F480527B681A627B685B683B617B685B
:10310800DB69FB60FB6823F0807323F4E043FB601A
:10311800FB6823F44073FB603B681B681B02FA687A
:103128001343FB607B6923F400537B613B689B6816
:103138001B037A6913437B617B68284A934203D057
:103148007B68274A93420DD17B6923F400437B6156
:103158003B68DB681B037A6913437B617B6923F453
:1031680080437B617B681D4A93420FD07B681C4A71
:1031780093420BD07B681B4A934207D07B681A4A5C
:10318800934203D07B68194A934213D13B6923F4D5
:1031980080433B613B6923F400433B613B685B69C7
:1031A8009B013A6913433B613B689B699B013A6900
:1031B80013433B617B683A695A607B68FA68DA6155
:1031C8003B685A687B681A647B687A691A6200BF30
:1031D8001C37BD465DF8047B704700BF002C0140DA
:1031E80000340140004001400044014000480140D3
:1031F80080B487B000AF786039607B681B6A3B6138
:103208007B681B6A23F480327B681A627B685B6880
:103218007B617B681B6DFB60FB6823F4803323F0C4
:103228007003FB603B681B68FA681343FB603B69EB
:1032380023F400333B613B689B681B043A691343E2
:103248003B617B68174A93420FD07B68164A9342CA
:103258000BD07B68154A934207D07B68144A934287
:1032680003D07B68134A934209D17B6923F48033E6
:103278007B613B685B691B027A6913437B617B68EE
:103288007A695A607B68FA681A653B685A687B688D
:103298009A647B683A691A6200BF1C37BD465DF8BC
:1032A800047B7047002C014000340140004001407D
:1032B800004401400048014080B487B000AF786006
:1032C80039607B681B6A3B617B681B6A23F4801248
:1032D8007B681A627B685B687B617B681B6DFB603F
:1032E800FB6823F0807323F4E043FB603B681B68B2
:1032F8001B02FA681343FB603B6923F400133B612C
:103308003B689B681B053A6913433B617B68184A15
:1033180093420FD07B68174A93420BD07B68164ABA
:10332800934207D07B68154A934203D07B68144ABE
:10333800934209D17B6923F480237B613B685B69F5
:103348009B027A6913437B617B687A695A607B6860
:10335800FA681A653B685A687B68DA647B683A6978
:103368001A6200BF1C37BD465DF8047B704700BF7A
:10337800002C01400034014000400140004401405D
:103388000048014080B487B000AFF860B9607A6047
:103398003B60FB681B6A3B61FB681B6A23F0010208
:1033A800FB681A62FB689B697B61FB68244A93424D
:1033B80013D0FB68B3F1804F0FD0FB68214A9342CA
:1033C8000BD0FB68204A934207D0FB681F4A934200
:1033D80003D0FB681E4A934201D1012300E0002379
:1033E800002B08D07B6923F003037B617A697B6833
:1033F80013437B6103E07B6943F001037B617B69D5
:1034080023F0F0037B613B681B01DBB27A6913434D
:103418007B613B6923F00A033B61BB6803F00A0345
:103428003A6913433B61FB687A699A61FB683A69B8
:103438001A6200BF1C37BD465DF8047B704700BFA9
:10344800002C014000040040000800400034014006
:103458000040014080B487B000AFF860B9607A607E
:10346800FB681B6A7B61FB681B6A23F00102FB682F
:103478001A62FB689B693B613B6923F0F0033B617F
:103488007B681B013A6913433B617B6923F00A039C
:103498007B617A69BB6813437B61FB683A699A610F
:1034A800FB687A691A6200BF1C37BD465DF8047B69
:1034B800704780B487B000AFF860B9607A603B604D
:1034C800FB681B6A7B61FB681B6A23F01002FB68C0
:1034D8001A62FB689B693B613B6923F440733B615B
:1034E8007B681B023A6913433B613B6923F47043D1
:1034F8003B613B681B039BB23A6913433B617B69A1
:1035080023F0A0037B61BB681B0103F0A0037A6969
:1035180013437B61FB683A699A61FB687A691A62AE
:1035280000BF1C37BD465DF8047B704780B487B088
:1035380000AFF860B9607A60FB681B6A7B61FB6862
:103548001B6A23F01002FB681A62FB689B693B61E7
:103558003B6923F470433B617B681B033A6913435F
:103568003B617B6923F0A0037B61BB681B017A691F
:1035780013437B61FB683A699A61FB687A691A624E
:1035880000BF1C37BD465DF8047B704780B487B028
:1035980000AFF860B9607A603B60FB681B6A7B61CA
:1035A800FB681B6A23F48072FB681A62FB68DB699C
:1035B8003B613B6923F003033B613A697B68134332
:1035C8003B613B6923F0F0033B613B681B01DBB2C5
:1035D8003A6913433B617B6923F420637B61BB68D1
:1035E8001B0203F420637A6913437B61FB683A6921
:1035F800DA61FB687A691A6200BF1C37BD465DF85C
:10360800047B704780B487B000AFF860B9607A6017
:103618003B60FB681B6A7B61FB681B6A23F4805272
:10362800FB681A62FB68DB693B613B6923F4407302
:103638003B617B681B023A6913433B613B6923F496
:1036480070433B613B681B039BB23A6913433B6180
:103658007B6923F420437B61BB681B0303F420438D
:103668007A6913437B61FB683A69DA61FB687A69B6
:103678001A6200BF1C37BD465DF8047B704780B4F2
:1036880085B000AF786039607B689B68FB60FB6839
:1036980023F4401323F07003FB603A68FB6813437C
:1036A80043F00703FB607B68FA689A6000BF143731
:1036B800BD465DF8047B704780B487B000AFF86002
:1036C800B9607A603B60FB689B687B617B6923F427
:1036D8007F437B613B681A027B681A43BB681343CC
:1036E8007A6913437B61FB687A699A6000BF1C376B
:1036F800BD465DF8047B704780B487B000AFF860C2
:10370800B9607A60BB6803F01F03012202FA03F371
:103718007B61FB681A6A7B69DB431A40FB681A62A3
:10372800FB681A6ABB6803F01F03796801FA03F3A0
:103738001A43FB681A6200BF1C37BD465DF8047B5C
:103748007047000080B485B000AF786039607B684E
:1037580093F83C30012B01D1022365E07B680122FC
:1037680083F83C207B68022283F83D207B681B6835
:103778005B68FB607B681B689B68BB607B681B6839
:103788002C4A934204D07B681B682B4A934208D189
:10379800FB6823F47003FB603B685B68FA681343BB
:1037A800FB60FB6823F0007323F07003FB603B6849
:1037B8001B68FA681343FB607B681B68FA685A60E9
:1037C8007B681B681B4A934218D07B681B68B3F15F
:1037D800804F13D07B681B68184A93420ED07B68D1
:1037E8001B68174A934209D07B681B68124A9342A8
:1037F80004D07B681B68134A93420CD1BB6823F042
:103808008003BB603B689B68BA681343BB607B68F6
:103818001B68BA689A607B68012283F83D207B6840
:10382800002283F83C20002318461437BD465DF873
:10383800047B7047002C0140003401400004004024
:10384800000800400040014002440346934200D172
:10385800704703F8011BF9E770B50D4D0D4C641B5B
:10386800A4100026A64209D10B4D0C4C01F09CF87F
:10387800641BA4100026A64205D170BD55F8043B70
:1038880098470136EEE755F8043B98470136F2E7CA
:10389800B04B0008B04B0008B04B0008B44B000810
:1038A8001FB553EC102B264823F00041814206D85F
:1038B8009FED211B05B05DF804EB00F099B8214895
:1038C800814208D910461946FCF7D0FD41EC100B8F
:1038D80005B05DF804FB684600F00EFA00F003003E
:1038E80001280BD0022815D0D8B99DED021B9DEDFB
:1038F800000B00F07DF851EC100BE7E79DED021B83
:103908009DED000B00F03CF953EC102B104603F131
:103918000041DBE79DED021B9DED000B00F068F810
:10392800F2E79DED021B9DED000B012000F028F948
:10393800E1E700BFAFF300800000000000000000D6
:10394800FB21E93FFFFFEF7F1FB553EC102B264803
:1039580023F00041814207D89FED211B002005B0CC
:103968005DF804EB00F00CB92048814208D91046F4
:103978001946FCF77BFD41EC100B05B05DF804FB24
:10398800684600F0B9F900F0030001280CD00228BD
:1039980011D0E8B99DED021B9DED000B012000F050
:1039A800EFF851EC100BE6E79DED021B9DED000BC7
:1039B80000F01EF8F5E79DED021B9DED000B0120C0
:1039C80000F0DEF853EC102B104603F10041D2E76B
:1039D8009DED021B9DED000B00F00AF8F2E700BF19
:1039E8000000000000000000FB21E93FFFFFEF7F1F
:1039F8002DE9F74F57EC106B27F00048B8F1795FC5
:103A08008DED001B06D230463946FCF76FFF0028C3
:103A180000F0888032463B4630463946FCF7F8FBD2
:103A2800514B002204460D46FCF7F2FB40A3D3E9B4
:103A3800002382468B4620462946FCF7E9FB3EA335
:103A4800D3E90023FCF714FD22462B46FCF7E0FBE4
:103A58003BA3D3E90023FCF709FD22462B46FCF7DC
:103A6800D7FB39A3D3E90023FCF702FD22462B46F6
:103A7800FCF7CEFB36A3D3E90023FCF7F7FC22467C
:103A88002B46FCF7C5FB34A3D3E90023FCF7F0FC75
:103A980022462B46FCF7BCFB22462B46FCF7B8FB1C
:103AA800DDE9002304460D4630463946FCF7B0FBF5
:103AB8000B46024629462046FCF7D8FC2B4B984576
:103AC80006460F4610D802460B4650465946FCF7A4
:103AD800CDFC0B46264902460020FCF7C7FC41EC0A
:103AE800100B03B0BDE8F08F224B214998458CBFDD
:103AF800214DA8F50015002422462B460020FCF78E
:103B0800B5FC2246804689462B4650465946FCF766
:103B1800ADFC32463B46FCF7A9FC02460B46404644
:103B28004946DAE79FED0E0BDBE700BFAFF30080F5
:103B3800D43888BEE9FAA8BDC4B1B4BD9EEE213E12
:103B4800AD529C804F7E923E9015CB19A001FA3E53
:103B58007751C1166CC1563F4C5555555555A53F23
:103B6800000000000000F03F0000E03F3233D33F88
:103B78000000F03F0000E93F0000D23F00000000D5
:103B88002DE9F04F55EC104B25F0004385B0B3F10B
:103B9800795F8DED021B804605D220462946FCF749
:103BA800A5FE002852D022462B4620462946FCF77F
:103BB8002FFB82468B4602460B4620462946FCF7D9
:103BC80027FB42A3D3E90023CDE90001504659461B
:103BD800FCF71EFB3FA3D3E90023FCF747FC524642
:103BE8005B46FCF715FB3DA3D3E90023FCF740FC3B
:103BF80052465B46FCF70CFB3AA3D3E90023FCF7DB
:103C080035FC52465B46FCF703FB38A3D3E9002397
:103C1800FCF72EFC06460F46B8F1000F1BD10246F2
:103C28000B4650465946FCF7F3FA25A3D3E900237F
:103C3800FCF71CFCDDE90023FCF7EAFA02460B4618
:103C480020462946FCF714FC04460D4645EC104B6B
:103C580005B0BDE8F08FDDE902011B4B0022FCF73F
:103C6800D7FA3246804689463B46DDE90001FCF733
:103C7800CFFA02460B4640464946FCF7F7FB524648
:103C88005B46FCF7C5FADDE90223FCF7EFFB0CA362
:103C9800D3E9002306460F46DDE90001FCF7B8FA30
:103CA80002460B4630463946FCF7E2FB02460B4615
:103CB80020462946FCF7DAFBC6E700BFAFF30080D1
:103CC800495555555555C53F0000E03F7CD5CF5A5D
:103CD8003AD9E53DEB9C2B8AE6E55A3E7DFEB15785
:103CE800E31DC73ED561C119A0012A3FA6F81011EE
:103CF8001111813F000000002DE9F04F57EC106BC7
:103D0800C54B8DB027F0004898450446049707D85E
:103D18000022002380ED000BC0E90223002528E0E3
:103D2800BE4B984578D8049BBD4D002B3046ACA3BC
:103D3800D3E90023394638DDFCF798FBA845064649
:103D48000F461AD0A8A3D3E90023FCF78FFB02463D
:103D58000B468046894630463946FCF787FBA2A3C6
:103D6800D3E90023FCF782FBC4E90089C4E9020116
:103D7800012528460DB0BDE8F08F9DA3D3E90023A7
:103D8800FCF774FB9CA3D3E9002306460F46FCF717
:103D98006DFB02460B468046894630463946FCF79D
:103DA80065FB95A3D3E90023DCE7FCF761FBA84595
:103DB80006460F4618D08CA3D3E90023FCF758FB1E
:103DC80002460B468046894630463946FCF74EFB8C
:103DD80085A3D3E90023FCF74BFB4FF0FF35C4E97B
:103DE8000089C4E90201C4E781A3D3E90023FCF7F1
:103DF8003FFB81A3D3E9002306460F46FCF738FBB7
:103E080002460B468046894630463946FCF72EFB6B
:103E180079A3D3E90023DEE7824B984500F2D180ED
:103E280000F066F957EC106B75A3D3E90023304610
:103E38003946FCF7EDF97C4B0022FCF719FBFCF73F
:103E480055FD0546FCF760FC02460B46CDE902230A
:103E580063A3D3E90023FCF7DBF902460B4630469F
:103E68003946FCF703FB60A3D3E9002382468B465F
:103E7800DDE90201FCF7CCF91F2D06460F460CDCE4
:103E88006A4B6A1E53F82230434506D032463B46F9
:103E980050465946FCF7EAFA0EE03B463246504691
:103EA8005946FCF7E3FA4FEA28530593C1F30A533E
:103EB800C3EB1853102B02DCC4E9000139E04CA312
:103EC800D3E90023DDE90201FCF7A2F906460F4613
:103ED80002460B4650465946FCF7C8FA02460B46BE
:103EE8008046894650465946FCF7C0FA32463B465A
:103EF800FCF7BCFA40A3D3E9002306460F46DDE9E8
:103F08000201FCF785F932463B46FCF7AFFA024658
:103F18000B4606460F4640464946FCF7A7FA059A5F
:103F2800C1F30A53D31A312B20DCC4E90001C2467D
:103F3800CB46D4E90089504642464B465946FCF7E1
:103F480095FA3B463246FCF791FA049B002BC4E9EC
:103F58000201BFF60EAF09F10043636001F10043AF
:103F6800C4F80080A060E3606D4202E726A3D3E9AD
:103F78000023DDE90201FCF74BF906460F4602462D
:103F88000B4640464946FCF771FA02460B46824604
:103F98008B4640464946FCF769FA32463B46FCF7F1
:103FA80065FA1BA3D3E9002306460F46DDE90201A3
:103FB800FCF72EF932463B46FCF758FA06460F4600
:103FC80064E71B4B984535D932463B46304639465F
:103FD800FCF74CFAC4E90201C4E900019EE600BFFF
:103FE80000004054FB21F93F3163621A61B4D03DAF
:103FF8000000601A61B4D03D7370032E8A19A33B88
:1040080083C8C96D305FE43F0000002E8A19A33BC6
:10401800C14920259A837B39FB21E93F7BD902409E
:10402800FB21F93FFB2139410000E03FD849000856
:10403800FFFFEF7F4FEA2855A5F21645A8EB05517B
:1040480030460F46FCF752FCFCF75EFB02460B4677
:1040580030463946CDE90623FCF708FA224B002200
:10406800FCF7D6F80F460646FCF740FCFCF74CFB7D
:1040780002460B4630463946CDE90823FCF7F6F9E7
:10408800194B0022FCF7C4F8CDE90A010DF13009FB
:104098004FF003080026002779E9020132463B4623
:1040A800C24608F1FF38FCF7EFFB0028F4D10F4BAC
:1040B8000193022300932A465346214606A800F09E
:1040C8001FF8049B002B0546BFF653AED4E9002128
:1040D80001F10043C4E90023D4E9022101F10043BE
:1040E800C4E9022340E700BF00007041584A0008B5
:1040F80051EC100B024621F0004343EC102B7047A3
:104108002DE9F04F2DED028BADF5197D12F1140F4D
:1041180006930491BE4BA499089053F8213000935C
:10412800069B03F1FF33A8BFD41E0593B2BF00243A
:10413800182394FBF3F46FF0170304FB033303EB2A
:10414800020B009B059A9FEDAE8B03EB0208A59B23
:10415800A71A20AE03EB87090025454513DD069B0A
:1041680020AA02EBC3050DF5E07A4FF00008009B8A
:10417800984531DC9FEDA27BDDF820908DED027B28
:104188002F4600261BE0EF4207D459F82500FCF71C
:10419800BBFAE6E802010135DFE751EC180BF8E756
:1041A800D7E90023F9E80201FCF732F802460B468A
:1041B800DDE90201FCF75CF9CDE902010136059B56
:1041C8009E42A7F10807EBDD9DED027B08F101088F
:1041D800AAEC027B0835CAE7009BDDF800800CAA30
:1041E80002EB83030A93A59B03EB840309934FEA2D
:1041F800C8030B9398AB03EBC80313ED287B8DED35
:10420800027B0CAC70AB03EBC805A146C246BAF101
:10421800000FA5F1080577DC58469DED020B00F06C
:10422800C7FA57EC106B00224FF07F5330463946DF
:10423800FBF7EEFF41EC100B00F03AFB754B51EC2D
:10424800100B0022FBF7E4FF02460B4630463946C6
:10425800FCF70CF90F460646FCF748FB0290FCF702
:1042680053FA02460B4630463946FCF7FFF8BBF1D5
:10427800000F06460F466CDD08F1FF310CAB029DBE
:1042880053F82130CBF1180043FA00F2154482406C
:104298009B1A0CAA029542F82130CBF1170243FA77
:1042A80002F9B9F1000F64DD029B00220133029389
:1042B80015466FF07F41904500F3B880BBF1000FC1
:1042C80007DDBBF1010F00F0BF80BBF1020F00F06A
:1042D800C680B9F1020F4CD132463B464E49002008
:1042E800FCF7C4F806460F46002D42D058469FED0D
:1042F800460B00F05DFA3046394653EC102BFCF7BC
:10430800B5F806460F4634E0444B0022DDE90201C9
:10431800FBF77EFFFCF7EAFAFCF7F6F9404B0022C0
:1043280006460F46FBF774FF02460B46DDE902011D
:10433800FCF79CF8FCF7DAFAD5E9002349F8040BF6
:1043480039463046FCF794F80AF1FF3ACDE9020104
:104358005DE707D108F1FF330CAA52F823304FEA82
:10436800E3599EE72F4B0022FCF7ACFA002843D113
:1043780081460022002330463946FCF785FA00289A
:1043880000F0BF8008F1FF33002200998B426EDAFB
:10439800002A00F0898008F1FF380CABABF1180B4C
:1043A80053F82830002BF6D058469FED170B00F035
:1043B800FFF908F10103DA00059255EC104B70AAD9
:1043C800DFF858B002EBC30746464FF0000A002E4C
:1043D80080F2CF804446002CC0F2FD80124B1F466D
:1043E80070AB03EBC40306934FF0000A4FF0000BC9
:1043F8000026A8EB0405E2E04FF0020954E700BFED
:104408000000000000000000000000000000F03F75
:10441800A04B0008000020400000F03F0000703E64
:10442800000070410000E03F604B000854F8043B76
:1044380045B923B1C3F1807344F8043C0123013228
:104448001D4638E7CB1AF7E708F1FF320CAB53F8F3
:104458002230C3F316030CA941F8223039E708F1DA
:10446800FF320CAB53F82230C3F31503F3E70CA962
:1044780051F82310013B0A4387E7013453F8042D10
:10448800002AFAD00B9B03F518730DEB0305069B66
:1044980020AA434408F10107983D02EBC3064444AF
:1044A800BC4204DAA046A2E60A9B0124E6E7099B7F
:1044B80053F82700FCF728F99FEDB17BE6E80201E5
:1044C8008DED027BDDF82090B2464FF00008059B89
:1044D800984505DD9DED027B0137A5EC027BDFE702
:1044E8007AE90223F9E80201FBF792FE02460B463D
:1044F800DDE90201FBF7BCFF08F10108CDE9020183
:10450800E5E7CBF1000047EC106B00F051F955ECF2
:10451800104B9D4B002220462946FCF7D3F900B3E7
:104528009A4B002220462946FBF772FEFCF7DEF97B
:104538000646FCF7E9F8944B0022FBF769FE0B46A8
:10454800024629462046FBF791FFFCF7CFF90CAB52
:104558000BF1180B43F8280008F1010843F828600C
:1045680022E720462946FCF7C1F90CAB43F828009E
:104578001AE70CAB53F82600FCF7C6F822462B4680
:10458800FBF746FE524667E902015B46204629468C
:10459800FBF73EFE013E04460D4618E70699F1E892
:1045A80002230691F7E80201FBF732FE02460B46AA
:1045B80050465946FBF75CFF013682468B46009B06
:1045C8009E4201DCB542E9DA48AB03EBC505C5E913
:1045D80000AB013CFFE6A49B022B0BDC002B39DC73
:1045E8005DD0029B03F007000DF5197DBDEC028B31
:1045F800BDE8F08FA49B032BF3D1059B03F518733B
:104608000DEB0304A4F5A4742546C246BAF1000FC5
:10461800A5F108056BDC4546012DA4F1080400F35B
:104628008780059C48AB1C4400200021B8F1010F8D
:1046380000F39C80DDE94878DDE94A56B9F1000FBE
:1046480040F0A680049BC3E90078C3E90256C3E999
:104658000401C6E7059D48AB1D44444600200021DF
:10466800002C35DAB9F1000F38D0024601F10043C9
:10467800049CC4E9002302460B46DDE94801FBF728
:10468800F5FE4AAD0124A0452BDAB9F1000F02D09E
:1046980001F100431946049BC3E90201A1E7059C07
:1046A80048AB1C4400200021B8F1000F09DAB9F129
:1046B800000F02D001F100431946049BC3E9000131
:1046C8008FE774E90223FBF7D3FE08F1FF38EBE725
:1046D80075E90223FBF7CCFE013CC1E702460B4615
:1046E800C6E7F5E80223FBF7C3FE0134CBE795EDF7
:1046F800007B8DED007B95ED027BDDE9000153EC3D
:10470800172B8DED067BFBF7B3FE02460B460646DC
:104718000F46DDE90001FBF7A9FEDDE90623FBF7FB
:10472800A7FE0AF1FF3AC5E90201C5E900676DE78E
:1047380094ED007BD4E902AB51EC170B52465B4673
:104748008DED007BFBF794FE02460B4606460F46AE
:10475800DDE90001FBF78AFE52465B46FBF788FE5F
:10476800013DC4E90201C4E9006755E774E9022381
:10477800FBF77EFE08F1FF3858E700BFAFF3008073
:104788000000000000000000000070410000703EC2
:10479800049B049A1F6008F100445C609D6006F168
:1047A8000043D36001F100431061536119E700BF72
:1047B80070B555EC104BC5F30A5106462B4691B916
:1047C80025F0004323433DD0354B2046294600229F
:1047D800FBF71EFD334B9E4204460D460FDA28A315
:1047E800D3E900231EE040F2FF7291420BD122462A
:1047F80020462946FBF73CFE04460D4622E00B46C0
:10480800C1F30A5136394CF2503296420DDD002D73
:104818001DA1D1E9000102DA1DA1D1E900011AA305
:10482800D3E90023FBF7F4FCE6E7721840F2FE71C7
:104838008A42ECDC002A08DD23F0FF4323F4E0037E
:1048480043EA025545EC104B70BD12F1350F08DAFA
:10485800002D0BA1D1E90001C1DA0FA1D1E90001B6
:10486800BDE723F0FF43363223F4E00343EA025561
:1048780020460D4B29460022D4E700BFAFF3008045
:1048880059F3F8C21F6EA5019C7500883CE4377E79
:104898009C7500883CE437FE59F3F8C21F6EA58169
:1048A80000005043B03CFFFF0000903C00000000B7
:1048B80051EC100BC1F30A532DE9F041A3F2FF3676
:1048C800132E0C460546804634DC002E17DA32A338
:1048D800D3E90023FBF7CCFD00220023FBF7FCFF04
:1048E80050B1002C55DA24F000442C430025AC428A
:1048F8002B4C08BF4FF000442146284623E0294F9F
:10490800374101EA070303431DD023A3D3E900235A
:10491800FBF7AEFD00220023FBF7DEFF0028EBD0FB
:10492800002CBEBF4FF480133341E41824EA070477
:104938000025E1E7332E0ADDB6F5806F03D1024684
:104948000B46FBF795FD41EC100BBDE8F081A3F297
:1049580013434FF0FF37DF400742F4D00EA3D3E9EB
:104968000023FBF785FD00220023FBF7B5FF002895
:10497800C2D0002C0ADA142E01D1013406E0C6F1A7
:1049880034060123B3401D444545F6D325EA0705FF
:10499800B2E700252C46AFE79C7500883CE4377EDB
:1049A8000000F0BFFFFF0F00F8B500BFF8BC08BC5F
:1049B8009E467047F8B500BFF8BC08BC9E467047D5
:1049C80000000000000000000102030406070809B7
:1049D800FB21F93FFB2109407CD91240FB211940FA
:1049E8007A6A1F407CD92240BBFD2540FB21294023
:1049F8003A462C407A6A2F405C4731407CD9324095
:104A08009C6B3440BBFD3540DB8F3740FB21394080
:104A18001BB43A403A463C405AD83D407A6A3F4037
:104A28004C7E40405C4741406C1042407CD942403B
:104A38008CA243409C6B4440AC344540BBFD454090
:104A4800CBC64640DB8F4740EB584840FB214940E6
:104A580083F9A200444E6E00FC291500D1572700A7
:104A6800DD34F50062DBC0003C99950041904300BD
:104A78006351FE00BBDEAB00B761C5003A6E24008F
:104A8800D24D42004906E00009EA2E001C92D100EE
:104A9800EB1DFE0029B11C00E83EA700F535820099
:104AA80044BB2E009CE98400B4267000417E5F0060
:104AB800D6913900538339009CF439008B5F840008
:104AC80028F9BD00F81F3B00DEFF97000F9805008E
:104AD800112FEF000A5A8B006D1F6D00CF7E360034
:104AE80009CB2700464FB7009E663F002DEA5F00BE
:104AF800BA277500E5EBC7003D7BF100F7390700E1
:104B080092528A00FB6BEA001FB15F00085D8D00BE
:104B1800300356007BFC4600F0AB6B0020BCCF0096
:104B280036F49A00E3A91D005E619100081BE600B7
:104B380085996500A0145F008D40680080D8FF004B
:104B480027734D0006063100CA561500C9A8730020
:104B58007BE260006B8CC00000000040FB21F93F45
:104B6800000000002D44743E000000809846F83C88
:104B78000000006051CC783B00000080831BF039B6
:104B88000000004020257A38000000802282E336A9
:104B9800000000001DF3693502000000030000005A
:084BA8000400000006000000FB
:044BB000FD010008FB
:044BB400D90100081B
:0C4BB8000024F4001000000001000000C8
:040000050800112DB1
:00000001FF
